:100000000C9462000C948A000C948A000C948A0070
:100010000C948A000C948A000C948A000C948A0038
:100020000C948A000C948A000C948A000C948A0028
:100030000C948A000C948A000C948A000C948A0018
:100040000C943E010C948A000C9494020C948A0047
:100050000C948A000C948A000C948A000C948A00F8
:100060000C948A000C948A000000000024002700F1
:100070002A0000000000250028002B0000000000DE
:1000800023002600290004040404040404040202DA
:100090000202020203030303030301020408102007
:1000A0004080010204081020010204081020000012
:1000B0000007000201000003040600000000000029
:1000C0000000050411241FBECFEFD8E0DEBFCDBF76
:1000D00011E0A0E0B1E0E2E0FAE002C005900D928C
:1000E000A031B107D9F711E0A0E1B1E001C01D9244
:1000F000A23CB107E1F710E0C4ECD0E004C02297C5
:10010000FE010E94FB04C23CD107C9F70E943701DF
:100110000C94FF040C9400008FEA91E00E94CA0343
:100120009093110180931001892BC1F48FEA91E023
:100130000E94CA0390931301809312018FEA91E009
:100140000E94CA0390931501809314018FEA91E0F5
:100150000E94CA03909317018093160180911201A7
:100160009091130190931F0180931E0180911601BD
:100170009091170190931901809318010E948601B4
:1001800020911A0130911B0140911C0150911D01D9
:10019000621B730B840B950B209118013091190190
:1001A000442737FD4095542F26173707480759072E
:1001B00018F50E94860160931A0170931B018093C9
:1001C0001C0190931D018091200190912101892BA8
:1001D00031F08091180190911901892B49F4809197
:1001E000140190911501909321018093200104C086
:1001F000109221011092200160911E0170911F0147
:100200008BE00E94CE0160912001709121018AE073
:100210000E94CE0188E0609100010E94470287E0C1
:10022000609102010E94470286E0609104010E94F1
:10023000470208958FEA91E040E855E260E070E0FF
:100240000E94D1028BE061E00E9427028AE061E017
:100250000E94270288E061E00E94270287E061E0B7
:100260000E94270286E061E00E94270208950E9412
:1002700094010E941A010E948C00FDCF1F920F92E0
:100280000FB60F9211242F933F938F939F93AF93A9
:10029000BF938091260190912701A0912801B091F0
:1002A000290130912A010196A11DB11D232F2D5F37
:1002B0002D3720F02D570196A11DB11D20932A0145
:1002C0008093260190932701A0932801B0932901E0
:1002D0008091220190912301A0912401B0912501E8
:1002E0000196A11DB11D8093220190932301A0933B
:1002F0002401B0932501BF91AF919F918F913F91C0
:100300002F910F900FBE0F901F9018958FB7F894F4
:100310002091260130912701409128015091290117
:100320008FBFB901CA010895789484B5826084BDF5
:1003300084B5816084BD85B5826085BD85B58160E9
:1003400085BDEEE6F0E0808181608083E1E8F0E049
:10035000808182608083808181608083E0E8F0E03A
:10036000808181608083E1EBF0E080818460808324
:10037000E0EBF0E0808181608083EAE7F0E080815B
:1003800084608083808182608083808181608083BB
:100390008081806880831092C10008951F93CF935D
:1003A000DF93182FEB0161E00E942702E12FF0E0BC
:1003B000E255FF4F8491833051F480918000806832
:1003C00080938000D0938900C09388003CC0843023
:1003D00051F480918000806280938000D0938B00E4
:1003E000C0938A0030C0813039F4209729F184B558
:1003F000806884BDC7BD27C0823039F42097E1F002
:1004000084B5806284BDC8BD1EC0863041F4809131
:10041000B00080688093B000C093B30014C08730F0
:1004200041F48091B00080628093B000C093B4002A
:100430000AC0C038D1051CF4812F60E002C0812FB2
:1004400061E00E944702DF91CF911F910895282F0C
:1004500030E0C90186569F4FFC0194912A573F4FC7
:10046000F9018491882391F0E82FF0E0EE0FFF1F4F
:10047000E859FF4FA591B491662329F48C9190958A
:1004800089238C9308958C91892B8C930895482F00
:1004900050E0CA0182559F4FFC012491CA01865643
:1004A0009F4FFC0194914A575F4FFA0134913323D7
:1004B000D1F1222331F1233021F4809180008F7714
:1004C00005C0243031F4809180008F7D80938000BE
:1004D00018C0213019F484B58F7704C0223021F47C
:1004E00084B58F7D84BD0DC0263021F48091B0008D
:1004F0008F7705C0273029F48091B0008F7D8093DD
:10050000B000E32FF0E0EE0FFF1FEE58FF4FA59174
:10051000B491662329F48C91909589238C93089546
:100520008C91892B8C9308951F920F920FB60F9286
:1005300011242F933F934F935F936F937F938F93E8
:100540009F93AF93BF93EF93FF934091C600E091C9
:10055000AB01F091AC01CF01019660E870E00E9420
:1005600095049C018091AD019091AE012817390747
:1005700039F0E55DFE4F40833093AC012093AB0131
:10058000FF91EF91BF91AF919F918F917F916F916B
:100590005F914F913F912F910F900FBE0F901F9041
:1005A00018955F926F927F928F929F92AF92BF92B7
:1005B000CF92DF92EF92FF920F931F93CF93DF932F
:1005C000EC013A014B01413482E458078FE068079F
:1005D00080E078070CF07FC060E874E88EE190E07E
:1005E000A40193010E94CA04215030404040504071
:1005F000CA01B90122E030E040E050E00E94CA04A4
:1006000059016A01A60195012095309540955095B4
:1006100094E0220F331F441F551F9A95D1F760E0D5
:1006200074E284EF90E00E94CA04CA01B9012FEF7E
:1006300030E040E050E00E947604A40193010E9463
:10064000CA04C90181509F4F181619061CF4522E76
:100650005A9403C055245394521A60E079E08DE314
:1006600090E0A40193010E94CA0421503040404010
:100670005040CA01B90122E030E040E050E00E9461
:10068000CA04209530954095509583E0220F331F82
:10069000441F551F8A95D1F760E074E284EF90E023
:1006A0000E94CA04CA01B9012FEF30E040E050E0D7
:1006B0000E947604A40193010E94CA04C9018150DA
:1006C0009F4F181619061CF4822F815002C081E03A
:1006D000821B851500F5E885F98581E090E00A88A0
:1006E00002C0880F991F0A94E2F7808360E079E0E6
:1006F0008DE390E0A40193010E94CA042150304090
:1007000040405040CA01B90122E030E040E050E0F2
:100710000E94CA0404C0E885F98510829501EC8125
:10072000FD813083EE81FF812083EA85FB85208176
:1007300041E050E0CA010E8402C0880F991F0A945C
:10074000E2F7282B2083EA85FB852081CA010F84EC
:1007500002C0880F991F0A94E2F7282B2083EA85AC
:10076000FB858081088802C0440F551F0A94E2F778
:10077000842B8083DF91CF911F910F91FF90EF9099
:10078000DF90CF90BF90AF909F908F907F906F90B1
:100790005F900895CF93DF93DC011296ED91FC9169
:1007A0001397EF01CE57DF4F48815981E058FF4F33
:1007B00080819181E058F0408417950719F42FEF5C
:1007C0003FEF0CC0E40FF51F2081CA01019660E8DD
:1007D00070E00E9495049983888330E0C901DF911D
:1007E000CF910895FC01A085B18521898C9190E07D
:1007F000022E02C0959587950A94E2F780FFF6CF06
:100800000484F585E02D608308958AE091E090935B
:10081000B0018093AF018BE291E09093B20180939D
:10082000B10185EC90E09093B4018093B30184EC26
:1008300090E09093B6018093B50180EC90E09093A6
:10084000B8018093B70181EC90E09093BA01809356
:10085000B90186EC90E09093BC018093BB0184E0E9
:100860008093BD0183E08093BE0187E08093BF0148
:1008700085E08093C00181E08093C10108950F93CA
:100880001F93CF93DF938C01EB0109C02196D80110
:10089000ED91FC910190F081E02DC80109956881EE
:1008A0006623A1F7DF91CF911F910F910895EF92E9
:1008B000FF920F931F93CF93DF938C017B01EA018B
:1008C0000CC0D7016D917D01D801ED91FC91019093
:1008D000F081E02DC80109952197209791F7DF91CC
:1008E000CF911F910F91FF90EF900895629FD001DB
:1008F000739FF001829FE00DF11D649FE00DF11DDB
:10090000929FF00D839FF00D749FF00D659FF00D89
:100910009927729FB00DE11DF91F639FB00DE11D76
:10092000F91FBD01CF011124089597FB092E072659
:100930000AD077FD04D049D006D000201AF4709573
:1009400061957F4F0895F6F7909581959F4F089593
:10095000A1E21A2EAA1BBB1BFD010DC0AA1FBB1FC3
:10096000EE1FFF1FA217B307E407F50720F0A21B35
:10097000B30BE40BF50B661F771F881F991F1A94A2
:1009800069F760957095809590959B01AC01BD01CC
:10099000CF01089597FB092E05260ED057FD04D0F0
:1009A000D7DF0AD0001C38F450954095309521953A
:1009B0003F4F4F4F5F4F0895F6F790958095709594
:1009C00061957F4F8F4F9F4F0895AA1BBB1B51E12D
:1009D00007C0AA1FBB1FA617B70710F0A61BB70BAF
:1009E000881F991F5A95A9F780959095BC01CD0154
:1009F0000895EE0FFF1F0590F491E02D0994F894EF
:020A0000FFCF26
:100A020001000100010000000000F2033F0457044E
:00000001FF
