:100000000C9462000C948A000C948A000C948A0070
:100010000C948A000C948A000C948A000C948A0038
:100020000C948A000C948C000C948A000C948A0026
:100030000C948A000C948A000C948A000C948A0018
:100040000C940A020C948A000C9472030C948A009B
:100050000C948A000C948A000C948A000C948A00F8
:100060000C948A000C948A000000000024002700F1
:100070002A0000000000250028002B0000000000DE
:1000800023002600290004040404040404040202DA
:100090000202020203030303030301020408102007
:1000A0004080010204081020010204081020000012
:1000B0000007000201000003040600000000000029
:1000C0000000BB0411241FBECFEFD8E0DEBFCDBFC0
:1000D00011E0A0E0B1E0E2ECFBE002C005900D927F
:1000E000AE31B107D9F713E0AEE1B1E001C01D9226
:1000F000A73CB107E1F710E0C4ECD0E004C02297C0
:10010000FE010E94DB05C23CD107C9F70E94030231
:100110000C94DF050C94000078941F920F920FB698
:100120000F921124DF92EF92FF920F931F932F9360
:100130003F934F935F936F937F938F939F93AF936F
:10014000BF93CF93DF93EF93FF93809170008E7FE7
:1001500080937000A0912203B09123031091240397
:10016000012F0095612F70E060957095C0910D0191
:10017000D0910E0140912003509121032FE730E0F0
:10018000DD249AE2E92E8AE2F82E4115510509F0A4
:100190002BC02332310508F44FC08C9180238C93FF
:1001A00080E09E2D9A95F1F78F5F8B30D1F7235227
:1001B00030408C91812B8C938F2D8A95F1F7F89498
:1001C0000C9006220C928BE000C09DE000009A95F6
:1001D000E9F70C9006220894D79408F4012A0C92AF
:1001E0008A9599F7789422C02B30310528F45093E2
:1001F00021034093200324C02B503040FA01E35EDA
:10020000FE4F8081F8940C9006220C929BE000C077
:10021000EDE00000EA95E9F70C9006220894879536
:1002200008F4012A0C929A9599F778944F5F5F4FE2
:10023000C417D50708F0A9CF10922103109220030C
:1002400080917000816080937000FF91EF91DF9149
:10025000CF91BF91AF919F918F917F916F915F915E
:100260004F913F912F911F910F91FF90EF90DF9051
:100270000F900FBE0F901F90189581E080931F0381
:1002800080910C01482F50E0FA01EA57FF4FE491AA
:10029000F0E0EE0FFF1FEE58FF4F259134913093A1
:1002A00023032093220346565F4FFA0194919093C3
:1002B000240361E00E94B602E0E7F0E08081816003
:1002C0008083089560930C0108951F93CF93DF936B
:1002D000EC01162F80911F03882311F40E943D0129
:1002E000CE01019780509240A0F420910D013091F1
:1002F0000E01CE014C2F892FC217D30718F4C90164
:10030000422F892F40930D0180930E01C35EDE4F73
:100310001883DF91CF911F910895CB01642F0E9424
:100320006501089580910F010E9423039093260395
:100330008093250318161906CCF08091110160E016
:100340000E94D6028EE193E062E070E040E00E94FD
:100350008D018EE193E063E070E040E00E948D014A
:100360008EE193E064E070E040E018C080911101FC
:1003700061E00E94D6028EE193E062E070E04FEF10
:100380000E948D018EE193E063E070E04FEF0E94E8
:100390008D018EE193E064E070E04FEF0E948D01EB
:1003A00068E270E080E090E00E94520208950F93AE
:1003B0001F9304EB13E0C80140E855E260E070E0F1
:1003C0000E94AF03C80160E071E00E944B05C801C4
:1003D0000E9434058091110161E00E94B602809173
:1003E0000F0160E00E94B6020EE113E0C8016BE06D
:1003F0000E946201C80161E070E047ED0E948D013A
:100400001F910F9108950E947C020E94D7010E94C3
:100410009201FDCF1F920F920FB60F9211242F93CE
:100420003F938F939F93AF93BF9380912B039091B2
:100430002C03A0912D03B0912E0330912F03019630
:10044000A11DB11D232F2D5F2D3720F02D570196B3
:10045000A11DB11D20932F0380932B0390932C0398
:10046000A0932D03B0932E0380912703909128032E
:10047000A0912903B0912A030196A11DB11D80937B
:10048000270390932803A0932903B0932A03BF91D5
:10049000AF919F918F913F912F910F900FBE0F9031
:1004A0001F901895EF92FF920F931F937B018C0181
:1004B0008FB7F89440912B0350912C0360912D033A
:1004C00070912E038FBF2FB7F89480912B039091DA
:1004D0002C03A0912D03B0912E032FBF841B950BED
:1004E000A60BB70BE816F9060A071B0760F71F9162
:1004F0000F91FF90EF900895789484B5826084BD49
:1005000084B5816084BD85B5826085BD85B5816017
:1005100085BDEEE6F0E0808181608083E1E8F0E077
:10052000808182608083808181608083E0E8F0E068
:10053000808181608083E1EBF0E080818460808352
:10054000E0EBF0E0808181608083EAE7F0E0808189
:1005500084608083808182608083808181608083E9
:100560008081806880831092C1000895282F30E038
:10057000C90186569F4FFC0194912A573F4FF901BC
:100580008491882391F0E82FF0E0EE0FFF1FE859E7
:10059000FF4FA591B491662329F48C9190958923FE
:1005A0008C9308958C91892B8C930895482F50E05B
:1005B000CA0182559F4FFC012491CA0186569F4F64
:1005C000FC0194914A575F4FFA0134913323D1F1E2
:1005D000222331F1233021F4809180008F7705C0F0
:1005E000243031F4809180008F7D8093800018C08A
:1005F000213019F484B58F7704C0223021F484B5FA
:100600008F7D84BD0DC0263021F48091B0008F779E
:1006100005C0273029F48091B0008F7D8093B00011
:10062000E32FF0E0EE0FFF1FEE58FF4FA591B491BE
:10063000662329F48C91909589238C9308958C914D
:10064000892B8C930895682F70E0CB0182559F4FC2
:10065000FC012491CB0186569F4FFC0144916A57BF
:100660007F4FFB019491992319F420E030E038C0CA
:10067000222331F1233021F4809180008F7705C04F
:10068000243031F4809180008F7D8093800018C0E9
:10069000213019F484B58F7704C0223021F484B559
:1006A0008F7D84BD0DC0263021F48091B0008F77FE
:1006B00005C0273029F48091B0008F7D8093B00071
:1006C000892F90E0880F991F84589F4FFC01A591B6
:1006D000B4918C9120E030E0842311F021E030E0EF
:1006E000C90108951F920F920FB60F9211242F93F4
:1006F0003F934F935F936F937F938F939F93AF93AA
:10070000BF93EF93FF934091C600E091B003F09147
:10071000B103CF01019660E870E00E9475059C016D
:100720008091B2039091B3032817390739F0E05D47
:10073000FC4F40833093B1032093B003FF91EF91BE
:10074000BF91AF919F918F917F916F915F914F91E9
:100750003F912F910F900FBE0F901F9018955F92B1
:100760006F927F928F929F92AF92BF92CF92DF92C1
:10077000EF92FF920F931F93CF93DF93EC013A0117
:100780004B01413482E458078FE0680780E0780726
:100790000CF07FC060E874E88EE190E0A401930162
:1007A0000E94AA052150304040405040CA01B90182
:1007B00022E030E040E050E00E94AA0559016A01C1
:1007C000A6019501209530954095509594E0220F13
:1007D000331F441F551F9A95D1F760E074E284EFF0
:1007E00090E00E94AA05CA01B9012FEF30E040E075
:1007F00050E00E945605A40193010E94AA05C90178
:1008000081509F4F181619061CF4522E5A9403C09B
:1008100055245394521A60E079E08DE390E0A401EE
:1008200093010E94AA052150304040405040CA0127
:10083000B90122E030E040E050E00E94AA05209596
:1008400030954095509583E0220F331F441F551F6C
:100850008A95D1F760E074E284EF90E00E94AA05E7
:10086000CA01B9012FEF30E040E050E00E94560588
:10087000A40193010E94AA05C90181509F4F181637
:1008800019061CF4822F815002C081E0821B85155D
:1008900000F5E885F98581E090E00A8802C0880FBC
:1008A000991F0A94E2F7808360E079E08DE390E09D
:1008B000A40193010E94AA052150304040405040BD
:1008C000CA01B90122E030E040E050E00E94AA05F0
:1008D00004C0E885F98510829501EC81FD813083A3
:1008E000EE81FF812083EA85FB85208141E050E095
:1008F000CA010E8402C0880F991F0A94E2F7282BC0
:100900002083EA85FB852081CA010F8402C0880FFD
:10091000991F0A94E2F7282B2083EA85FB858081C2
:10092000088802C0440F551F0A94E2F7842B808385
:10093000DF91CF911F910F91FF90EF90DF90CF90BB
:10094000BF90AF909F908F907F906F905F90089531
:10095000FC01A085B18521898C9190E0022E02C016
:10096000959587950A94E2F780FFF6CF0484F58584
:10097000E02D6083089587E191E09093B503809323
:10098000B40380E393E09093B7038093B60385ECC0
:1009900090E09093B9038093B80384EC90E0909337
:1009A000BB038093BA0380EC90E09093BD038093E7
:1009B000BC0381EC90E09093BF038093BE0386EC70
:1009C00090E09093C1038093C00384E08093C203BE
:1009D00083E08093C30387E08093C40385E0809322
:1009E000C50381E08093C60308950F931F93CF93AF
:1009F000DF938C01EB0109C02196D801ED91FC91A8
:100A00000190F081E02DC801099568816623A1F766
:100A1000DF91CF911F910F910895EF92FF920F9365
:100A20001F93CF93DF938C017B01EA010CC0D701A8
:100A30006D917D01D801ED91FC910190F081E02D47
:100A4000C80109952197209791F7DF91CF911F91C8
:100A50000F91FF90EF900895DC01ED91FC910280E1
:100A6000F381E02D099508950F931F938C01DC010C
:100A7000ED91FC910190F081E02D6DE00995D80198
:100A8000ED91FC910190F081E02DC8016AE009959B
:100A90001F910F9108950F931F938C010E942C05B5
:100AA000C8010E9434051F910F910895629FD001E3
:100AB000739FF001829FE00DF11D649FE00DF11D19
:100AC000929FF00D839FF00D749FF00D659FF00DC8
:100AD0009927729FB00DE11DF91F639FB00DE11DB5
:100AE000F91FBD01CF011124089597FB092E072698
:100AF0000AD077FD04D049D006D000201AF47095B2
:100B000061957F4F0895F6F7909581959F4F0895D1
:100B1000A1E21A2EAA1BBB1BFD010DC0AA1FBB1F01
:100B2000EE1FFF1FA217B307E407F50720F0A21B73
:100B3000B30BE40BF50B661F771F881F991F1A94E0
:100B400069F760957095809590959B01AC01BD010A
:100B5000CF01089597FB092E05260ED057FD04D02E
:100B6000D7DF0AD0001C38F4509540953095219578
:100B70003F4F4F4F5F4F0895F6F7909580957095D2
:100B800061957F4F8F4F9F4F0895AA1BBB1B51E16B
:100B900007C0AA1FBB1FA617B70710F0A61BB70BED
:100BA000881F991F5A95A9F780959095BC01CD0192
:100BB0000895EE0FFF1F0590F491E02D0994F8942D
:020BC000FFCF65
:100BC20053776974636820546573740003100002DC
:0E0BD20000030000000000A804F5040D05005B
:00000001FF
