:100000000C9462000C948A000C948A000C948A0070
:100010000C948A000C948A000C948A000C948A0038
:100020000C948A000C948C000C948A000C948A0026
:100030000C948A000C948A000C948A000C948A0018
:100040000C94E2020C948A000C9438040C948A00FC
:100050000C948A000C948A000C948A000C948A00F8
:100060000C948A000C948A000000000024002700F1
:100070002A0000000000250028002B0000000000DE
:1000800023002600290004040404040404040202DA
:100090000202020203030303030301020408102007
:1000A0004080010204081020010204081020000012
:1000B0000007000201000003040600000000000029
:1000C0000000BD0511241FBECFEFD8E0DEBFCDBFBD
:1000D00011E0A0E0B1E0E2E7FDE002C005900D9282
:1000E000A031B107D9F713E0A0E1B1E001C01D9242
:1000F000A73DB107E1F710E0C4ECD0E004C02297BF
:10010000FE010E94B306C23CD107C9F70E94DB0280
:100110000C94B7060C94000078941F920F920FB6BF
:100120000F921124DF92EF92FF920F931F932F9360
:100130003F934F935F936F937F938F939F93AF936F
:10014000BF93CF93DF93EF93FF93809170008E7FE7
:1001500080937000A0911403B091150310911603C1
:10016000012F0095612F70E060957095C09101019D
:10017000D091020140911203509113032FE730E018
:10018000DD249AE2E92E8AE2F82E4115510509F0A4
:100190002BC02332310508F44FC08C9180238C93FF
:1001A00080E09E2D9A95F1F78F5F8B30D1F7235227
:1001B00030408C91812B8C938F2D8A95F1F7F89498
:1001C0000C9006220C928BE000C09DE000009A95F6
:1001D000E9F70C9006220894D79408F4012A0C92AF
:1001E0008A9599F7789422C02B30310528F45093E2
:1001F00013034093120324C02B503040FA01E15FF7
:10020000FE4F8081F8940C9006220C929BE000C077
:10021000EDE00000EA95E9F70C9006220894879536
:1002200008F4012A0C929A9599F778944F5F5F4FE2
:10023000C417D50708F0A9CF109213031092120328
:1002400080917000816080937000FF91EF91DF9149
:10025000CF91BF91AF919F918F917F916F915F915E
:100260004F913F912F911F910F91FF90EF90DF9051
:100270000F900FBE0F901F90189581E0809311038F
:1002800080910001482F50E0FA01EA57FF4FE491B6
:10029000F0E0EE0FFF1FEE58FF4F259134913093A1
:1002A00015032093140346565F4FFA0194919093DF
:1002B000160361E00E94CB03E0E7F0E080818160FB
:1002C000808308956093000108951816190664F05C
:1002D000809170008E7F80937000109211031092B5
:1002E000020110920101089522E08130920714F07A
:1002F00080E092E0909302018093010180911103CC
:10030000882311F40E943D010895CB010E946501EC
:1003100008951F93CF93DF93EC01162F8091110363
:10032000882311F40E943D01CE0101978050924034
:10033000A0F42091010130910201CE014C2F892FB0
:10034000C217D30718F4C901422F892F4093010126
:1003500080930201C15FDE4F1883DF91CF911F911F
:100360000895CB01642F0E948901089584EC93E0E5
:100370000E946E05883008F04FC05BC084EC93E0AB
:100380000E9482059093180380931703892B09F02C
:1003900043C084EC93E00E948205019790931A0376
:1003A0008093190384EC93E00E9482050197909357
:1003B0001C0380931B0384EC93E00E948205019749
:1003C00090931E0380931D0384EC93E00E948205AA
:1003D00001979093200380931F0384EC93E00E9485
:1003E00082050197909322038093210384EC93E08C
:1003F0000E9482050197909324038093230384EC49
:1004000093E00E9482050197909326038093250331
:100410001092040110920301809103019091040154
:10042000019709F4ABCF81E090E0909304018093B1
:10043000030180911D0390911E03909330038093DC
:100440002F0380911F039091200390933203809398
:100450003103809121039091220390933403809380
:100460003303809123039091240390933603809368
:100470003503809125039091260390932803809360
:1004800027030E942A032091290330912A034091D7
:100490002B0350912C03621B730B840B950B209143
:1004A000270330912803442737FD4095542F261702
:1004B00037074807590708F04EC00E942A03609387
:1004C000290370932A0380932B0390932C0380912C
:1004D0002D0390912E03892B31F080912703909169
:1004E0002803892BF9F480E193E062E070E0409109
:1004F00031030E94B10180E193E063E070E040913C
:1005000033030E94B10180E193E064E070E0409128
:1005100035030E94B10181E090E090932E03809317
:100520002D0319C080E193E062E070E040E00E949A
:10053000B10180E193E063E070E040E00E94B1012E
:1005400080E193E064E070E040E00E94B10110922D
:100550002E0310922D0360912F037091300383E0DE
:100560000E94720308950F931F9300E113E0C801E6
:100570006BE00E946201C80164E070E00E948501A6
:10058000C80161E070E047ED0E94B10184EC93E0A6
:1005900040E855E260E070E00E94750481E090E080
:1005A000909304018093030183E061E00E94CB03F8
:1005B0001F910F9108950E9438030E94B3020E9478
:1005C000B601FDCF1F920F920FB60F9211242F93F9
:1005D0003F938F939F93AF93BF9380913B039091F1
:1005E0003C03A0913D03B0913E0330913F0301963F
:1005F000A11DB11D232F2D5F2D3720F02D57019602
:10060000A11DB11D20933F0380933B0390933C03B6
:10061000A0933D03B0933E0380913703909138033C
:10062000A0913903B0913A030196A11DB11D8093A9
:10063000370390933803A0933903B0933A03BF91E3
:10064000AF919F918F913F912F910F900FBE0F907F
:100650001F9018958FB7F89420913B0330913C037D
:1006600040913D0350913E038FBFB901CA010895E7
:10067000789484B5826084BD84B5816084BD85B57D
:10068000826085BD85B5816085BDEEE6F0E0808144
:1006900081608083E1E8F0E08081826080838081F6
:1006A00081608083E0E8F0E0808181608083E1EB1D
:1006B000F0E0808184608083E0EBF0E08081816005
:1006C0008083EAE7F0E080818460808380818260BB
:1006D00080838081816080838081806880831092A4
:1006E000C10008951F93CF93DF93182FEB0161E0B2
:1006F0000E94CB03E12FF0E0E255FF4F849183305D
:1007000051F480918000806880938000D0938900AC
:10071000C09388003CC0843051F480918000806296
:1007200080938000D0938B00C0938A0030C08130CA
:1007300039F4209729F184B5806884BDC7BD27C0EE
:10074000823039F42097E1F084B5806284BDC8BD61
:100750001EC0863041F48091B00080688093B00064
:10076000C093B30014C0873041F48091B000806220
:100770008093B000C093B4000AC0C038D1051CF407
:10078000812F60E002C0812F61E00E94EB03DF91C6
:10079000CF911F910895282F30E0C90186569F4FB1
:1007A000FC0194912A573F4FF9018491882391F0DD
:1007B000E82FF0E0EE0FFF1FE859FF4FA591B4912D
:1007C000662329F48C91909589238C9308958C91BC
:1007D000892B8C930895482F50E0CA0182559F4F72
:1007E000FC012491CA0186569F4FFC0194914A57FF
:1007F0005F4FFA0134913323D1F1222331F12330B9
:1008000021F4809180008F7705C0243031F48091ED
:1008100080008F7D8093800018C0213019F484B54A
:100820008F7704C0223021F484B58F7D84BD0DC044
:10083000263021F48091B0008F7705C0273029F44D
:100840008091B0008F7D8093B000E32FF0E0EE0F39
:10085000FF1FEE58FF4FA591B491662329F48C91A8
:10086000909589238C9308958C91892B8C9308956E
:100870001F920F920FB60F9211242F933F934F9315
:100880005F936F937F938F939F93AF93BF93EF93F8
:10089000FF934091C600E091C003F091C103CF01E6
:1008A000019660E870E00E944D069C018091C203B1
:1008B0009091C3032817390739F0E05CFC4F40835F
:1008C0003093C1032093C003FF91EF91BF91AF918B
:1008D0009F918F917F916F915F914F913F912F9158
:1008E0000F900FBE0F901F9018955F926F927F929E
:1008F0008F929F92AF92BF92CF92DF92EF92FF9230
:100900000F931F93CF93DF93EC013A014B014134D6
:1009100082E458078FE0680780E078070CF07FC01A
:1009200060E874E88EE190E0A40193010E948206E1
:100930002150304040405040CA01B90122E030E02F
:1009400040E050E00E94820659016A01A60195012B
:10095000209530954095509594E0220F331F441F09
:10096000551F9A95D1F760E074E284EF90E00E9401
:100970008206CA01B9012FEF30E040E050E00E944A
:100980002E06A40193010E948206C90181509F4F47
:10099000181619061CF4522E5A9403C05524539469
:1009A000521A60E079E08DE390E0A40193010E9487
:1009B00082062150304040405040CA01B90122E037
:1009C00030E040E050E00E9482062095309540954E
:1009D000509583E0220F331F441F551F8A95D1F78E
:1009E00060E074E284EF90E00E948206CA01B901DF
:1009F0002FEF30E040E050E00E942E06A40193016A
:100A00000E948206C90181509F4F181619061CF4D6
:100A1000822F815002C081E0821B851500F5E88598
:100A2000F98581E090E00A8802C0880F991F0A9436
:100A3000E2F7808360E079E08DE390E0A401930128
:100A40000E9482062150304040405040CA01B90106
:100A500022E030E040E050E00E94820604C0E885D9
:100A6000F98510829501EC81FD813083EE81FF8153
:100A70002083EA85FB85208141E050E0CA010E8495
:100A800002C0880F991F0A94E2F7282B2083EA8579
:100A9000FB852081CA010F8402C0880F991F0A9428
:100AA000E2F7282B2083EA85FB858081088802C035
:100AB000440F551F0A94E2F7842B8083DF91CF9176
:100AC0001F910F91FF90EF90DF90CF90BF90AF906C
:100AD0009F908F907F906F905F900895DC011296A9
:100AE000ED91FC911397E058FF4F819191918058BF
:100AF0009F4F20813181821B930B60E870E00E9440
:100B00004D060895CF93DF93DC011296ED91FC9191
:100B10001397EF01CE57DF4F48815981E058FF4FBF
:100B200080819181E058F0408417950719F42FEFE8
:100B30003FEF0CC0E40FF51F2081CA01019660E869
:100B400070E00E944D069983888330E0C901DF91EF
:100B5000CF910895FC01A085B18521898C9190E009
:100B6000022E02C0959587950A94E2F780FFF6CF92
:100B70000484F585E02D6083089589E091E09093E9
:100B8000C5038093C40380E493E09093C7038093EC
:100B9000C60385EC90E09093C9038093C80384EC6E
:100BA00090E09093CB038093CA0380EC90E0909305
:100BB000CD038093CC0381EC90E09093CF0380939E
:100BC000CE0386EC90E09093D1038093D00384E031
:100BD0008093D20383E08093D30387E08093D40390
:100BE00085E08093D50381E08093D60308950F9329
:100BF0001F93CF93DF938C01EB0109C02196D8019D
:100C0000ED91FC910190F081E02DC801099568817A
:100C10006623A1F7DF91CF911F910F910895EF9275
:100C2000FF920F931F93CF93DF938C017B01EA0117
:100C30000CC0D7016D917D01D801ED91FC9101901F
:100C4000F081E02DC80109952197209791F7DF9158
:100C5000CF911F910F91FF90EF900895629FD00167
:100C6000739FF001829FE00DF11D649FE00DF11D67
:100C7000929FF00D839FF00D749FF00D659FF00D16
:100C80009927729FB00DE11DF91F639FB00DE11D03
:100C9000F91FBD01CF011124089597FB092E0726E6
:100CA0000AD077FD04D049D006D000201AF4709500
:100CB00061957F4F0895F6F7909581959F4F089520
:100CC000A1E21A2EAA1BBB1BFD010DC0AA1FBB1F50
:100CD000EE1FFF1FA217B307E407F50720F0A21BC2
:100CE000B30BE40BF50B661F771F881F991F1A942F
:100CF00069F760957095809590959B01AC01BD0159
:100D0000CF01089597FB092E05260ED057FD04D07C
:100D1000D7DF0AD0001C38F45095409530952195C6
:100D20003F4F4F4F5F4F0895F6F790958095709520
:100D300061957F4F8F4F9F4F0895AA1BBB1B51E1B9
:100D400007C0AA1FBB1FA617B70710F0A61BB70B3B
:100D5000881F991F5A95A9F780959095BC01CD01E0
:100D60000895EE0FFF1F0590F491E02D0994F8947B
:020D7000FFCFB3
:100D7200031000010000000000AA05F7050F06009D
:00000001FF
