:100000000C9462000C948A000C948A000C948A0070
:100010000C948A000C948A000C948A000C948A0038
:100020000C948A000C948A000C948A000C948A0028
:100030000C948A000C948A000C948A000C948A0018
:100040000C9403020C948A000C9459030C948A00BB
:100050000C948A000C948A000C948A000C948A00F8
:100060000C948A000C948A000000000024002700F1
:100070002A0000000000250028002B0000000000DE
:1000800023002600290004040404040404040202DA
:100090000202020203030303030301020408102007
:1000A0004080010204081020010204081020000012
:1000B0000007000201000003040600000000000029
:1000C0000000DE0411241FBECFEFD8E0DEBFCDBF9D
:1000D00011E0A0E0B1E0E4EBFBE002C005900D927E
:1000E000A631B107D9F711E0A6E1B1E001C01D9238
:1000F000A43DB107E1F710E0C4ECD0E004C02297C2
:10010000FE010E94D405C23CD107C9F70E94FC0140
:100110000C94D8050C940000CF93DF9381EC91E010
:100120000E948F048630E0F548C081EC91E00E9487
:10013000A3049093170180931601892B89F581EC14
:1001400091E00E94A30401979093190180931801F4
:1001500081EC91E00E94A304019790931B0180938E
:100160001A0181EC91E00E94A304019790931D0174
:1001700080931C0181EC91E00E94A304880F991FD9
:1001800090931F0180931E0181EC91E00E94A304D3
:100190009093210180932001109207011092060193
:1001A0008091060190910701019709F4BECF81E08B
:1001B00090E090930701809306018091180190913F
:1001C000190190932D0180932C0180911C01909135
:1001D0001D01909325018093240180911E0190912F
:1001E0001F01909327018093260180912001909117
:1001F000210190933101809330010E944B022091A4
:1002000028013091290140912A0150912B01621B54
:10021000730B840B950B2091240130912501442709
:1002200037FD4095542F261737074807590718F50B
:100230000E944B02609328017093290180932A0148
:1002400090932B0180912E0190912F01892B31F0F9
:100250008091240190912501892B49F480911A0104
:1002600090911B0190932F0180932E0104C0109256
:100270002F0110922E01C0913001D0913101C13077
:10028000D10529F0C230D10509F073C00DC0D0935B
:100290000101C0930001D0930301C0930201D093E8
:1002A0000501C093040165C00E944B022091080122
:1002B0003091090140910A0150910B01621B730BAF
:1002C000840B950B2091260130912701442737FD9F
:1002D0004095542F261737074807590708F049C09B
:1002E0000E944B02609308017093090180930A01F8
:1002F00090930B018091320190913301009799F412
:1003000081E090E09093010180930001109203013D
:100310001092020110920501109204019093330192
:100320008093320126C08130910589F41092010139
:100330001092000190930301809302011092050135
:1003400010920401D0933301C093320112C0109275
:10035000010110920001109203011092020181E04C
:1003600090E0909305018093040110923301109264
:10037000320160912C0170912D018BE00E9493025B
:1003800060912E0170912F018AE00E94930288E013
:10039000609100010E940C0387E0609102010E94BD
:1003A0000C0386E0609104010E940C03DF91CF9161
:1003B000089581EC91E040E855E260E070E00E9431
:1003C00096038BE061E00E94EC028AE061E00E940B
:1003D000EC0288E061E00E94EC0287E061E00E94AC
:1003E000EC0286E061E00E94EC0281E090E09093F4
:1003F00007018093060108950E9459020E94D901C5
:100400000E948C00FDCF1F920F920FB60F92112405
:100410002F933F938F939F93AF93BF938091380116
:1004200090913901A0913A01B0913B0130913C018A
:100430000196A11DB11D232F2D5F2D3720F02D57C3
:100440000196A11DB11D20933C018093380190932A
:100450003901A0933A01B0933B018091340190910E
:100460003501A0913601B09137010196A11DB11D52
:100470008093340190933501A0933601B0933701F6
:10048000BF91AF919F918F913F912F910F900FBE90
:100490000F901F9018958FB7F894209138013091E4
:1004A000390140913A0150913B018FBFB901CA0116
:1004B0000895789484B5826084BD84B5816084BDDC
:1004C00085B5826085BD85B5816085BDEEE6F0E0CD
:1004D000808181608083E1E8F0E0808182608083B8
:1004E000808181608083E0E8F0E0808181608083AA
:1004F000E1EBF0E0808184608083E0EBF0E08081DC
:1005000081608083EAE7F0E080818460808380817D
:100510008260808380818160808380818068808325
:100520001092C10008951F93CF93DF93182FEB0112
:1005300061E00E94EC02E12FF0E0E255FF4F849170
:10054000833051F480918000806880938000D09344
:100550008900C09388003CC0843051F480918000B1
:10056000806280938000D0938B00C0938A0030C05B
:10057000813039F4209729F184B5806884BDC7BDE6
:1005800027C0823039F42097E1F084B5806284BDC1
:10059000C8BD1EC0863041F48091B0008068809351
:1005A000B000C093B30014C0873041F48091B00014
:1005B00080628093B000C093B4000AC0C038D105F7
:1005C0001CF4812F60E002C0812F61E00E940C03C7
:1005D000DF91CF911F910895282F30E0C9018656F1
:1005E0009F4FFC0194912A573F4FF9018491882332
:1005F00091F0E82FF0E0EE0FFF1FE859FF4FA591B3
:10060000B491662329F48C91909589238C93089555
:100610008C91892B8C930895482F50E0CA01825504
:100620009F4FFC012491CA0186569F4FFC01949173
:100630004A575F4FFA0134913323D1F1222331F12C
:10064000233021F4809180008F7705C0243031F46D
:10065000809180008F7D8093800018C0213019F434
:1006600084B58F7704C0223021F484B58F7D84BD9A
:100670000DC0263021F48091B0008F7705C027305F
:1006800029F48091B0008F7D8093B000E32FF0E0DB
:10069000EE0FFF1FEE58FF4FA591B491662329F48A
:1006A0008C91909589238C9308958C91892B8C93B0
:1006B00008951F920F920FB60F9211242F933F931C
:1006C0004F935F936F937F938F939F93AF93BF935A
:1006D000EF93FF934091C600E091BD01F091BE0100
:1006E000CF01019660E870E00E946E059C01809148
:1006F000BF019091C0012817390739F0E35CFE4F24
:1007000040833093BE012093BD01FF91EF91BF91D3
:10071000AF919F918F917F916F915F914F913F9199
:100720002F910F900FBE0F901F9018955F926F92B0
:100730007F928F929F92AF92BF92CF92DF92EF9271
:10074000FF920F931F93CF93DF93EC013A014B017C
:10075000413482E458078FE0680780E078070CF0A6
:100760007FC060E874E88EE190E0A40193010E94EC
:10077000A3052150304040405040CA01B90122E059
:1007800030E040E050E00E94A30559016A01A60153
:100790009501209530954095509594E0220F331F98
:1007A000441F551F9A95D1F760E074E284EF90E002
:1007B0000E94A305CA01B9012FEF30E040E050E0EC
:1007C0000E944F05A40193010E94A305C901815015
:1007D0009F4F181619061CF4522E5A9403C0552424
:1007E0005394521A60E079E08DE390E0A401930104
:1007F0000E94A3052150304040405040CA01B90139
:1008000022E030E040E050E00E94A30520953095C2
:100810004095509583E0220F331F441F551F8A9542
:10082000D1F760E074E284EF90E00E94A305CA0172
:10083000B9012FEF30E040E050E00E944F05A401E5
:1008400093010E94A305C90181509F4F18161906F4
:100850001CF4822F815002C081E0821B851500F5B7
:10086000E885F98581E090E00A8802C0880F991F29
:100870000A94E2F7808360E079E08DE390E0A401E0
:1008800093010E94A3052150304040405040CA01CE
:10089000B90122E030E040E050E00E94A30504C02E
:1008A000E885F98510829501EC81FD813083EE8128
:1008B000FF812083EA85FB85208141E050E0CA0169
:1008C0000E8402C0880F991F0A94E2F7282B208318
:1008D000EA85FB852081CA010F8402C0880F991F19
:1008E0000A94E2F7282B2083EA85FB85808108881B
:1008F00002C0440F551F0A94E2F7842B8083DF91D6
:10090000CF911F910F91FF90EF90DF90CF90BF900C
:10091000AF909F908F907F906F905F900895DC01D3
:100920001296ED91FC911397E058FF4F81919191B0
:1009300080589F4F20813181821B930B60E870E0CB
:100940000E946E050895CF93DF93DC011296ED911E
:10095000FC911397EF01CE57DF4F48815981E05842
:10096000FF4F80819181E058F0408417950719F47A
:100970002FEF3FEF0CC0E40FF51F2081CA01019655
:1009800060E870E00E946E059983888330E0C901B9
:10099000DF91CF910895FC01A085B18521898C91CB
:1009A00090E0022E02C0959587950A94E2F780FFA9
:1009B000F6CF0484F585E02D6083089580E191E011
:1009C0009093C2018093C1018DE391E09093C401A3
:1009D0008093C30185EC90E09093C6018093C5019C
:1009E00084EC90E09093C8018093C70180EC90E084
:1009F0009093CA018093C90181EC90E09093CC015F
:100A00008093CB0186EC90E09093CE018093CD0152
:100A100084E08093CF0183E08093D00187E08093CE
:100A2000D10185E08093D20181E08093D3010895C4
:100A30000F931F93CF93DF938C01EB0109C0219695
:100A4000D801ED91FC910190F081E02DC80109954C
:100A500068816623A1F7DF91CF911F910F910895CF
:100A6000EF92FF920F931F93CF93DF938C017B0143
:100A7000EA010CC0D7016D917D01D801ED91FC9187
:100A80000190F081E02DC80109952197209791F7F9
:100A9000DF91CF911F910F91FF90EF900895629F8A
:100AA000D001739FF001829FE00DF11D649FE00D66
:100AB000F11D929FF00D839FF00D749FF00D659FC7
:100AC000F00D9927729FB00DE11DF91F639FB00DC6
:100AD000E11DF91FBD01CF011124089597FB092ED7
:100AE00007260AD077FD04D049D006D000201AF49A
:100AF000709561957F4F0895F6F7909581959F4F7A
:100B00000895A1E21A2EAA1BBB1BFD010DC0AA1F4E
:100B1000BB1FEE1FFF1FA217B307E407F50720F066
:100B2000A21BB30BE40BF50B661F771F881F991FE1
:100B30001A9469F760957095809590959B01AC012A
:100B4000BD01CF01089597FB092E05260ED057FD54
:100B500004D0D7DF0AD0001C38F45095409530956A
:100B600021953F4F4F4F5F4F0895F6F79095809531
:100B7000709561957F4F8F4F9F4F0895AA1BBB1BA8
:100B800051E107C0AA1FBB1FA617B70710F0A61B8D
:100B9000B70B881F991F5A95A9F780959095BC01AE
:100BA000CD010895EE0FFF1F0590F491E02D0994FB
:040BB000F894FFCFE7
:100BB400010001000100010001000000000000002C
:060BC400CB04180530050A
:00000001FF
