:100000000C9462000C948A000C948A000C948A0070
:100010000C948A000C948A000C948A000C948A0038
:100020000C948A000C948A000C948A000C948A0028
:100030000C948A000C948A000C948A000C948A0018
:100040000C94B8000C948A000C9400020C948A0062
:100050000C948A000C948A000C948A000C948A00F8
:100060000C948A000C948A000000000024002700F1
:100070002A0000000000250028002B0000000000DE
:1000800023002600290004040404040404040202DA
:100090000202020203030303030301020408102007
:1000A0004080010204081020010204081020000012
:1000B0000007000201000003040600000000000029
:1000C0000000850311241FBECFEFD8E0DEBFCDBFF7
:1000D00011E0A0E0B1E0E2E0F9E002C005900D928D
:1000E000AC30B107D9F711E0ACE0B1E001C01D922E
:1000F000AC3AB107E1F710E0C4ECD0E004C02297BD
:10010000FE010E947B04C23CD107C9F70E94B100E6
:100110000C947F040C94000089E991E00E9436035E
:10012000882381F089E991E00E944A03813029F413
:1001300089E991E00E944A03682F8091000170E0F4
:100140000E943A01089589E991E040E855E260E0B3
:1001500070E00E943D028091000161E00E949301E5
:1001600008950E9400010E94A3000E948C00FDCF10
:100170001F920F920FB60F9211242F933F938F93DC
:100180009F93AF93BF938091100190911101A09123
:100190001201B0911301309114010196A11DB11DFE
:1001A000232F2D5F2D3720F02D570196A11DB11D56
:1001B000209314018093100190931101A0931201D8
:1001C000B093130180910C0190910D01A0910E014B
:1001D000B0910F010196A11DB11D80930C01909368
:1001E0000D01A0930E01B0930F01BF91AF919F91AC
:1001F0008F913F912F910F900FBE0F901F901895E8
:10020000789484B5826084BD84B5816084BD85B5F1
:10021000826085BD85B5816085BDEEE6F0E08081B8
:1002200081608083E1E8F0E080818260808380816A
:1002300081608083E0E8F0E0808181608083E1EB91
:10024000F0E0808184608083E0EBF0E08081816079
:100250008083EAE7F0E0808184608083808182602F
:100260008083808181608083808180688083109218
:10027000C10008951F93CF93DF93182FEB0161E026
:100280000E949301E12FF0E0E255FF4F849183300B
:1002900051F480918000806880938000D093890021
:1002A000C09388003CC0843051F48091800080620B
:1002B00080938000D0938B00C0938A0030C081303F
:1002C00039F4209729F184B5806884BDC7BD27C063
:1002D000823039F42097E1F084B5806284BDC8BDD6
:1002E0001EC0863041F48091B00080688093B000D9
:1002F000C093B30014C0873041F48091B000806295
:100300008093B000C093B4000AC0C038D1051CF47B
:10031000812F60E002C0812F61E00E94B301DF9174
:10032000CF911F910895282F30E0C90186569F4F25
:10033000FC0194912A573F4FF9018491882391F051
:10034000E82FF0E0EE0FFF1FE859FF4FA591B491A1
:10035000662329F48C91909589238C9308958C9130
:10036000892B8C930895482F50E0CA0182559F4FE6
:10037000FC012491CA0186569F4FFC0194914A5773
:100380005F4FFA0134913323D1F1222331F123302D
:1003900021F4809180008F7705C0243031F4809162
:1003A00080008F7D8093800018C0213019F484B5BF
:1003B0008F7704C0223021F484B58F7D84BD0DC0B9
:1003C000263021F48091B0008F7705C0273029F4C2
:1003D0008091B0008F7D8093B000E32FF0E0EE0FAE
:1003E000FF1FEE58FF4FA591B491662329F48C911D
:1003F000909589238C9308958C91892B8C930895E3
:100400001F920F920FB60F9211242F933F934F9389
:100410005F936F937F938F939F93AF93BF93EF936C
:10042000FF934091C600E0919501F0919601CF01B4
:10043000019660E870E00E9415049C01809197018C
:10044000909198012817390739F0EB5EFE4F4083F1
:100450003093960120939501FF91EF91BF91AF9159
:100460009F918F917F916F915F914F913F912F91CC
:100470000F900FBE0F901F9018955F926F927F9212
:100480008F929F92AF92BF92CF92DF92EF92FF92A4
:100490000F931F93CF93DF93EC013A014B0141344B
:1004A00082E458078FE0680780E078070CF07FC08F
:1004B00060E874E88EE190E0A40193010E944A0490
:1004C0002150304040405040CA01B90122E030E0A4
:1004D00040E050E00E944A0459016A01A6019501DA
:1004E000209530954095509594E0220F331F441F7E
:1004F000551F9A95D1F760E074E284EF90E00E9476
:100500004A04CA01B9012FEF30E040E050E00E94F8
:10051000F603A40193010E944A04C90181509F4F30
:10052000181619061CF4522E5A9403C055245394DD
:10053000521A60E079E08DE390E0A40193010E94FB
:100540004A042150304040405040CA01B90122E0E5
:1005500030E040E050E00E944A04209530954095FC
:10056000509583E0220F331F441F551F8A95D1F702
:1005700060E074E284EF90E00E944A04CA01B9018D
:100580002FEF30E040E050E00E94F603A401930119
:100590000E944A04C90181509F4F181619061CF485
:1005A000822F815002C081E0821B851500F5E8850D
:1005B000F98581E090E00A8802C0880F991F0A94AB
:1005C000E2F7808360E079E08DE390E0A40193019D
:1005D0000E944A042150304040405040CA01B901B5
:1005E00022E030E040E050E00E944A0404C0E88588
:1005F000F98510829501EC81FD813083EE81FF81C8
:100600002083EA85FB85208141E050E0CA010E8409
:1006100002C0880F991F0A94E2F7282B2083EA85ED
:10062000FB852081CA010F8402C0880F991F0A949C
:10063000E2F7282B2083EA85FB858081088802C0A9
:10064000440F551F0A94E2F7842B8083DF91CF91EA
:100650001F910F91FF90EF90DF90CF90BF90AF90E0
:100660009F908F907F906F905F900895DC0112961D
:10067000ED91FC911397E058FF4F81919191805833
:100680009F4F20813181821B930B60E870E00E94B4
:1006900015040895CF93DF93DC011296ED91FC9140
:1006A0001397EF01CE57DF4F48815981E058FF4F34
:1006B00080819181E058F0408417950719F42FEF5D
:1006C0003FEF0CC0E40FF51F2081CA01019660E8DE
:1006D00070E00E9415049983888330E0C901DF919E
:1006E000CF910895FC01A085B18521898C9190E07E
:1006F000022E02C0959587950A94E2F780FFF6CF07
:100700000484F585E02D6083089586E091E0909360
:100710009A018093990185E191E090939C018093E7
:100720009B0185EC90E090939E0180939D0184EC69
:1007300090E09093A00180939F0180EC90E09093D3
:10074000A2018093A10181EC90E09093A401809399
:10075000A30186EC90E09093A6018093A50184E02C
:100760008093A70183E08093A80187E08093A9018B
:1007700085E08093AA0181E08093AB0108950F93F7
:100780001F93CF93DF938C01EB0109C02196D80111
:10079000ED91FC910190F081E02DC80109956881EF
:1007A0006623A1F7DF91CF911F910F910895EF92EA
:1007B000FF920F931F93CF93DF938C017B01EA018C
:1007C0000CC0D7016D917D01D801ED91FC91019094
:1007D000F081E02DC80109952197209791F7DF91CD
:1007E000CF911F910F91FF90EF900895629FD001DC
:1007F000739FF001829FE00DF11D649FE00DF11DDC
:10080000929FF00D839FF00D749FF00D659FF00D8A
:100810009927729FB00DE11DF91F639FB00DE11D77
:10082000F91FBD01CF011124089597FB092E07265A
:100830000AD077FD04D049D006D000201AF4709574
:1008400061957F4F0895F6F7909581959F4F089594
:10085000A1E21A2EAA1BBB1BFD010DC0AA1FBB1FC4
:10086000EE1FFF1FA217B307E407F50720F0A21B36
:10087000B30BE40BF50B661F771F881F991F1A94A3
:1008800069F760957095809590959B01AC01BD01CD
:10089000CF01089597FB092E05260ED057FD04D0F1
:1008A000D7DF0AD0001C38F450954095309521953B
:1008B0003F4F4F4F5F4F0895F6F790958095709595
:1008C00061957F4F8F4F9F4F0895AA1BBB1B51E12E
:1008D00007C0AA1FBB1FA617B70710F0A61BB70BB0
:1008E000881F991F5A95A9F780959095BC01CD0155
:1008F0000895EE0FFF1F0590F491E02D0994F894F0
:02090000FFCF27
:0C0902000B00000000007203BF03D703CD
:00000001FF
