:100000000C9463000C948B000C948B000C948B006C
:100010000C948B000C948B000C948B000C948B0034
:100020000C948B000C948B000C948B000C948B0024
:100030000C948B000C948B000C948B000C948B0014
:100040000C94D0030C948B000C9426050C948B001C
:100050000C948B000C948B000C948B000C948B00F4
:100060000C948B000C948B000000000024002700EF
:100070002A0000000000250028002B0000000000DE
:1000800023002600290004040404040404040202DA
:100090000202020203030303030301020408102007
:1000A0004080010204081020010204081020000012
:1000B0000007000201000003040600000000000029
:1000C0000000EE00AB0611241FBECFEFD8E0DEBF6C
:1000D000CDBF11E0A0E0B1E0E0E0F0E102C00590AA
:1000E0000D92AA31B107D9F711E0AAE1B1E001C040
:1000F0001D92AA3DB107E1F710E0C6ECD0E004C0C4
:100100002297FE010E94C307C23CD107C9F70E9493
:10011000C9030C94FE070C940000A0E0B0E0E3E9F2
:10012000F0E00C94CF07EC01A880B980CA80DB8096
:10013000A114B104C104D10441F484E2A82E89EDD4
:10014000B82E8BE5C82E87E0D82EC601B5012DE16B
:1001500033EF41E050E00E94920727EA31E440E0AB
:1001600050E00E943E077B018C01C601B5012DE1E4
:1001700033EF41E050E00E949207CA01B9012CEE32
:1001800034EF4FEF5FEF0E943E076E0D7F1D801F23
:10019000911F97FF04C06150704080409048688371
:1001A00079838A839B839B01AC015F77B901CA0184
:1001B000CDB7DEB7EAE00C94EB070E948D000895FE
:1001C00080E091E00E948D0008956093000170939B
:1001D00001018093020190930301089563E070E0B0
:1001E00080E090E00E941C0770932D0160932C0129
:1001F0000895CF93DF9387EC91E00E945C068630F0
:10020000E0F548C087EC91E00E94700690931B01D6
:1002100080931A01892B89F587EC91E00E94700682
:10022000019790931D0180931C0187EC91E00E943F
:100230007006019790931F0180931E0187EC91E057
:100240000E9470060197909321018093200187EC12
:1002500091E00E947006880F991F9093230180936C
:10026000220187EC91E00E94700690932501809313
:10027000240110920B0110920A0180910A019091C1
:100280000B01019709F4BECF81E090E090930B0140
:1002900080930A0180911C0190911D01909333017C
:1002A0008093320180912001909121019093290146
:1002B00080932801809122019091230190932B013A
:1002C00080932A0180912401909125019093370118
:1002D000809336010E94180420912E0130912F0145
:1002E0004091300150913101621B730B840B950BCF
:1002F0002091280130912901442737FD4095542F42
:10030000261737074807590718F50E941804609305
:100310002E0170932F0180933001909331018091D1
:10032000340190913501892B31F080912801909111
:100330002901892B49F480911E0190911F0190930E
:1003400035018093340104C01092350110923401BC
:10035000C0913601D0913701C430D10509F4E0C015
:10036000C530D10564F4C230D10531F1C330D105B7
:100370000CF078C0C130D10509F0C8C110C0C6303A
:10038000D10509F438C1C630D1050CF429C1C730F4
:10039000D10509F43FC1289709F0B8C14AC1D093EB
:1003A0000501C0930401D0930701C0930601D093C7
:1003B0000901C0930801AAC10E94180420910C01F0
:1003C00030910D0140910E0150910F01621B730B92
:1003D000840B950B20912A0130912B01442737FD86
:1003E0004095542F261737074807590708F08EC144
:1003F0000E94180460930C0170930D0180930E010C
:1004000090930F018091380190913901009759F430
:1004100081E090E090930501809304011092070120
:1004200010920601B3C08130910589F41092050144
:100430001092040190930701809306011092090124
:1004400010920801D0933901C09338015FC1109216
:10045000050110920401109207011092060181E03B
:1004600090E0B9C00E94180420910C0130910D0158
:1004700040910E0150910F01621B730B840B950B81
:1004800020912A0130912B01442737FD4095542FAC
:10049000261737074807590708F038C10E94180483
:1004A00060930C0170930D0180930E0190930F01E6
:1004B0008091380190913901009779F410920501EB
:1004C00010920401109207011092060181E090E061
:1004D00090930901809308016FC08130910569F400
:1004E0001092050110920401909307018093060178
:1004F00010920901109208015DC081E090E0909394
:1005000005018093040110920701109206011092D8
:100510000901109208011092390110923801F6C0B9
:100520000E94180420910C0130910D0140910E01A0
:1005300050910F01621B730B840B950B20912A01C4
:1005400030912B01442737FD4095542F261737074C
:100550004807590708F0DAC00E94180460930C019C
:1005600070930D0180930E0190930F0180913801DB
:1005700090913901009779F481E090E09093050122
:100580008093040190930701809306011092090162
:100590001092080111C08130910599F41092050163
:1005A0001092040190930701809306019093090132
:1005B0008093080182E090E09093390180933801A4
:1005C000A5C081E090E09093050180930401109212
:1005D00007011092060190930901809308019BCFB7
:1005E00081E090E09093050180930401109207014F
:1005F000109206010AC0109205011092040181E0D8
:1006000090E09093070180930601109209011092E7
:1006100008017CC01092050110920401109207019C
:100620001092060181E090E0909309018093080107
:100630006DC00E94180420910C0130910D01409171
:100640000E0150910F01621B730B840B950B2091CF
:100650002A0130912B01442737FD4095542F26174E
:1006600037074807590708F051C00E9418046093E3
:100670000C0170930D0180930E0190930F018091F6
:100680002C0190912D01009779F481E090E09093F6
:100690000501809304011092070110920601109247
:1006A00009011092080111C08130910599F410924E
:1006B00005011092040190930701809306011092A6
:1006C00009011092080182E090E090933901809333
:1006D000380112C010920501109204011092070116
:1006E0001092060181E090E0909309018093080147
:1006F000109239011092380163E070E080E090E0E0
:100700000E941C0770932D0160932C0160913201AF
:10071000709133018BE00E9460046091340170910C
:1007200035018AE00E94600488E0609104010E9423
:10073000D90487E0609106010E94D90486E06091A7
:1007400008010E94D904DF91CF91089587EC91E0D0
:1007500040E855E260E070E00E9463058BE061E0F4
:100760000E94B9048AE061E00E94B90488E061E077
:100770000E94B90487E061E00E94B90486E061E06C
:100780000E94B90481E090E090930B0180930A01EC
:1007900008950E9426040E94A6030E94F900FDCF3E
:1007A0001F920F920FB60F9211242F933F938F93A6
:1007B0009F93AF93BF9380913E0190913F01A09191
:1007C0004001B0914101309142010196A11DB11D3E
:1007D000232F2D5F2D3720F02D570196A11DB11D20
:1007E0002093420180933E0190933F01A0934001EA
:1007F000B093410180913A0190913B01A0913C015D
:10080000B0913D010196A11DB11D80933A019093D5
:100810003B01A0933C01B0933D01BF91AF919F91EB
:100820008F913F912F910F900FBE0F901F901895B1
:100830008FB7F89420913E0130913F0140914001E3
:10084000509141018FBFB901CA010895789484B5D0
:10085000826084BD84B5816084BD85B5826085BDBC
:1008600085B5816085BDEEE6F0E0808181608083A2
:10087000E1E8F0E080818260808380818160808314
:10088000E0E8F0E0808181608083E1EBF0E080814E
:1008900084608083E0EBF0E0808181608083EAE720
:1008A000F0E08081846080838081826080838081A9
:1008B000816080838081806880831092C100089568
:1008C0001F93CF93DF93182FEB0161E00E94B904CF
:1008D000E12FF0E0E255FF4F8491833051F4809195
:1008E0008000806880938000D0938900C093880046
:1008F0003CC0843051F480918000806280938000FD
:10090000D0938B00C0938A0030C0813039F4209797
:1009100029F184B5806884BDC7BD27C0823039F411
:100920002097E1F084B5806284BDC8BD1EC08630CA
:1009300041F48091B00080688093B000C093B30010
:1009400014C0873041F48091B00080628093B00081
:10095000C093B4000AC0C038D1051CF4812F60E0F8
:1009600002C0812F61E00E94D904DF91CF911F91D5
:100970000895282F30E0C90186569F4FFC019491BD
:100980002A573F4FF9018491882391F0E82FF0E036
:10099000EE0FFF1FE859FF4FA591B491662329F48C
:1009A0008C91909589238C9308958C91892B8C93AD
:1009B0000895482F50E0CA0182559F4FFC012491B1
:1009C000CA0186569F4FFC0194914A575F4FFA0126
:1009D00034913323D1F1222331F1233021F480915A
:1009E00080008F7705C0243031F4809180008F7DA6
:1009F0008093800018C0213019F484B58F7704C02B
:100A0000223021F484B58F7D84BD0DC0263021F4C1
:100A10008091B0008F7705C0273029F48091B00015
:100A20008F7D8093B000E32FF0E0EE0FFF1FEE58B4
:100A3000FF4FA591B491662329F48C919095892359
:100A40008C9308958C91892B8C9308951F920F920B
:100A50000FB60F9211242F933F934F935F936F9391
:100A60007F938F939F93AF93BF93EF93FF934091A7
:100A7000C600E091C301F091C401CF01019660E886
:100A800070E00E945D079C018091C5019091C601B4
:100A90002817390739F0ED5BFE4F40833093C401CE
:100AA0002093C301FF91EF91BF91AF919F918F91DF
:100AB0007F916F915F914F913F912F910F900FBE5A
:100AC0000F901F9018955F926F927F928F929F92D6
:100AD000AF92BF92CF92DF92EF92FF920F931F934C
:100AE000CF93DF93EC013A014B01413482E4580784
:100AF0008FE0680780E078070CF07FC060E874E85A
:100B00008EE190E0A40193010E94920721503040B1
:100B100040405040CA01B90122E030E040E050E0DE
:100B20000E94920759016A01A6019501209530950E
:100B30004095509594E0220F331F441F551F9A95FE
:100B4000D1F760E074E284EF90E00E949207CA015E
:100B5000B9012FEF30E040E050E00E943E07A401D1
:100B600093010E949207C90181509F4F18161906E0
:100B70001CF4522E5A9403C055245394521A60E028
:100B800079E08DE390E0A40193010E949207215047
:100B9000304040405040CA01B90122E030E040E01E
:100BA00050E00E949207209530954095509583E043
:100BB000220F331F441F551F8A95D1F760E074E25E
:100BC00084EF90E00E949207CA01B9012FEF30E054
:100BD00040E050E00E943E07A40193010E9492076A
:100BE000C90181509F4F181619061CF4822F81509D
:100BF00002C081E0821B851500F5E885F98581E05A
:100C000090E00A8802C0880F991F0A94E2F7808357
:100C100060E079E08DE390E0A40193010E949207E7
:100C20002150304040405040CA01B90122E030E03C
:100C300040E050E00E94920704C0E885F9851082E8
:100C40009501EC81FD813083EE81FF812083EA856F
:100C5000FB85208141E050E0CA010E8402C0880F6C
:100C6000991F0A94E2F7282B2083EA85FB852081CF
:100C7000CA010F8402C0880F991F0A94E2F7282B3B
:100C80002083EA85FB858081088802C0440F551FB8
:100C90000A94E2F7842B8083DF91CF911F910F910B
:100CA000FF90EF90DF90CF90BF90AF909F908F908C
:100CB0007F906F905F900895DC011296ED91FC910A
:100CC0001397E058FF4F8191919180589F4F208159
:100CD0003181821B930B60E870E00E945D070895EC
:100CE000CF93DF93DC011296ED91FC911397EF0106
:100CF000CE57DF4F48815981E058FF4F8081918165
:100D0000E058F0408417950719F42FEF3FEF0CC01F
:100D1000E40FF51F2081CA01019660E870E00E948F
:100D20005D079983888330E0C901DF91CF910895F1
:100D3000FC01A085B18521898C9190E0022E02C032
:100D4000959587950A94E2F780FFF6CF0484F585A0
:100D5000E02D6083089584E191E09093C801809331
:100D6000C70183E491E09093CA018093C90185ECA7
:100D700090E09093CC018093CB0184EC90E0909331
:100D8000CE018093CD0180EC90E09093D0018093D0
:100D9000CF0181EC90E09093D2018093D10186EC59
:100DA00090E09093D4018093D30184E08093D501A7
:100DB00083E08093D60187E08093D70185E080931C
:100DC000D80181E08093D90108950F931F93CF93A9
:100DD000DF938C01EB0109C02196D801ED91FC91C4
:100DE0000190F081E02DC801099568816623A1F783
:100DF000DF91CF911F910F910895EF92FF920F9382
:100E00001F93CF93DF938C017B01EA010CC0D701C4
:100E10006D917D01D801ED91FC910190F081E02D63
:100E2000C80109952197209791F7DF91CF911F91E4
:100E30000F91FF90EF900895EF92FF920F931F9301
:100E40007B018C01611571058105910529F420E074
:100E500030E040E050E00BC00E94E000A8019701A4
:100E60000E949207AC01CB01DA019C01AD01B901EE
:100E7000CA011F910F91FF90EF900895629FD001DA
:100E8000739FF001829FE00DF11D649FE00DF11D45
:100E9000929FF00D839FF00D749FF00D659FF00DF4
:100EA0009927729FB00DE11DF91F639FB00DE11DE1
:100EB000F91FBD01CF011124089597FB092E0726C4
:100EC0000AD077FD04D049D006D000201AF47095DE
:100ED00061957F4F0895F6F7909581959F4F0895FE
:100EE000A1E21A2EAA1BBB1BFD010DC0AA1FBB1F2E
:100EF000EE1FFF1FA217B307E407F50720F0A21BA0
:100F0000B30BE40BF50B661F771F881F991F1A940C
:100F100069F760957095809590959B01AC01BD0136
:100F2000CF01089597FB092E05260ED057FD04D05A
:100F3000D7DF0AD0001C38F45095409530952195A4
:100F40003F4F4F4F5F4F0895F6F7909580957095FE
:100F500061957F4F8F4F9F4F0895AA1BBB1B51E197
:100F600007C0AA1FBB1FA617B70710F0A61BB70B19
:100F7000881F991F5A95A9F780959095BC01CD01BE
:100F80000895EE0FFF1F0590F491E02D09942F9224
:100F90003F924F925F926F927F928F929F92AF9209
:100FA000BF92CF92DF92EF92FF920F931F93CF9356
:100FB000DF93CDB7DEB7CA1BDB0B0FB6F894DEBFED
:100FC0000FBECDBF09942A88398848885F846E8413
:100FD0007D848C849B84AA84B984C884DF80EE805D
:100FE000FD800C811B81AA81B981CE0FD11D0FB666
:100FF000F894DEBF0FBECDBFED010895F894FFCF8A
:1010000001000000010001000100010001000000DA
:0A101000000000009806E506FD064A
:00000001FF
