:100000000C9462000C948A000C948A000C948A0070
:100010000C948A000C948A000C948A000C948A0038
:100020000C948A000C948C000C948A000C948A0026
:100030000C948A000C948A000C948A000C948A0018
:100040000C94F7010C948A000C94C3020C948A005F
:100050000C948A000C948A000C948A000C948A00F8
:100060000C948A000C948A000000000024002700F1
:100070002A0000000000250028002B0000000000DE
:1000800023002600290004040404040404040202DA
:100090000202020203030303030301020408102007
:1000A0004080010204081020010204081020000012
:1000B0000007000201000003040600000000000029
:1000C0000000480411241FBECFEFD8E0DEBFCDBF33
:1000D00011E0A0E0B1E0E8E8FAE002C005900D927E
:1000E000AE30B107D9F713E0AEE0B1E001C01D9228
:1000F000A73BB107E1F710E0C4ECD0E004C02297C1
:10010000FE010E943E05C23CD107C9F70E94F001E2
:100110000C9442050C94000078941F920F920FB635
:100120000F921124DF92EF92FF920F931F932F9360
:100130003F934F935F936F937F938F939F93AF936F
:10014000BF93CF93DF93EF93FF93809170008E7FE7
:1001500080937000A0911203B091130310911403C7
:10016000012F0095612F70E060957095C09101019D
:10017000D091020140911003509111032FE730E01C
:10018000DD249AE2E92E8AE2F82E4115510509F0A4
:100190002BC02332310508F44FC08C9180238C93FF
:1001A00080E09E2D9A95F1F78F5F8B30D1F7235227
:1001B00030408C91812B8C938F2D8A95F1F7F89498
:1001C0000C9006220C928BE000C09DE000009A95F6
:1001D000E9F70C9006220894D79408F4012A0C92AF
:1001E0008A9599F7789422C02B30310528F45093E2
:1001F00011034093100324C02B503040FA01E35FF9
:10020000FE4F8081F8940C9006220C929BE000C077
:10021000EDE00000EA95E9F70C9006220894879536
:1002200008F4012A0C929A9599F778944F5F5F4FE2
:10023000C417D50708F0A9CF10921103109210032C
:1002400080917000816080937000FF91EF91DF9149
:10025000CF91BF91AF919F918F917F916F915F915E
:100260004F913F912F911F910F91FF90EF90DF9051
:100270000F900FBE0F901F90189581E080930F0391
:1002800080910001482F50E0FA01EA57FF4FE491B6
:10029000F0E0EE0FFF1FEE58FF4F259134913093A1
:1002A00013032093120346565F4FFA0194919093E3
:1002B000140361E00E94A302E0E7F0E08081816026
:1002C000808308956093000108951816190664F05C
:1002D000809170008E7F8093700010920F031092B7
:1002E000020110920101089522E08130920714F07A
:1002F00080E092E0909302018093010180910F03CE
:10030000882311F40E943D010895CB010E946501EC
:1003100008951F93CF93DF93EC01162F80910F0365
:10032000882311F40E943D01CE0101978050924034
:10033000A0F42091010130910201CE014C2F892FB0
:10034000C217D30718F4C901422F892F4093010126
:1003500080930201C35FDE4F1883DF91CF911F911D
:100360000895CB01642F0E948901089584EA93E0E7
:100370000E94F9038823A9F084EA93E00E940D0407
:10038000482F80931503909316038EE093E062E06C
:1003900070E00E94B10165E070E080E090E00E94B2
:1003A0003F0208950F931F930EE013E0C8016BE026
:1003B0000E946201C80164E070E00E948501C801EA
:1003C00061E070E047ED0E94B10184EA93E040E80B
:1003D00055E260E070E00E9400031F910F910895C4
:1003E0000E9469020E94D2010E94B601FDCF1F92B5
:1003F0000F920FB60F9211242F933F938F939F93D9
:10040000AF93BF9380911B0390911C03A0911D0398
:10041000B0911E0330911F030196A11DB11D232F22
:100420002D5F2D3720F02D570196A11DB11D209372
:100430001F0380931B0390931C03A0931D03B09391
:100440001E038091170390911803A0911903B09196
:100450001A030196A11DB11D8093170390931803F1
:10046000A0931903B0931A03BF91AF919F918F91FD
:100470003F912F910F900FBE0F901F901895EF9204
:10048000FF920F931F937B018C018FB7F8944091DB
:100490001B0350911C0360911D0370911E038FBFBD
:1004A0002FB7F89480911B0390911C03A0911D031A
:1004B000B0911E032FBF841B950BA60BB70BE8163C
:1004C000F9060A071B0760F71F910F91FF90EF9045
:1004D0000895789484B5826084BD84B5816084BDBC
:1004E00085B5826085BD85B5816085BDEEE6F0E0AD
:1004F000808181608083E1E8F0E080818260808398
:10050000808181608083E0E8F0E080818160808389
:10051000E1EBF0E0808184608083E0EBF0E08081BB
:1005200081608083EAE7F0E080818460808380815D
:100530008260808380818160808380818068808305
:100540001092C1000895282F30E0C90186569F4FB0
:10055000FC0194912A573F4FF9018491882391F02F
:10056000E82FF0E0EE0FFF1FE859FF4FA591B4917F
:10057000662329F48C91909589238C9308958C910E
:10058000892B8C9308951F920F920FB60F9211240E
:100590002F933F934F935F936F937F938F939F938B
:1005A000AF93BF93EF93FF934091C600E091A003F8
:1005B000F091A103CF01019660E870E00E94D80499
:1005C0009C018091A2039091A3032817390739F069
:1005D000E05EFC4F40833093A1032093A003FF9182
:1005E000EF91BF91AF919F918F917F916F915F91AB
:1005F0004F913F912F910F900FBE0F901F90189524
:100600005F926F927F928F929F92AF92BF92CF92A2
:10061000DF92EF92FF920F931F93CF93DF93EC0142
:100620003A014B01413482E458078FE0680780E0CB
:1006300078070CF07FC060E874E88EE190E0A401D8
:1006400093010E940D052150304040405040CA01A6
:10065000B90122E030E040E050E00E940D05590170
:100660006A01A6019501209530954095509594E03A
:10067000220F331F441F551F9A95D1F760E074E293
:1006800084EF90E00E940D05CA01B9012FEF30E020
:1006900040E050E00E94B904A40193010E940D05BE
:1006A000C90181509F4F181619061CF4522E5A94F6
:1006B00003C055245394521A60E079E08DE390E032
:1006C000A40193010E940D0521503040404050404C
:1006D000CA01B90122E030E040E050E00E940D057F
:1006E000209530954095509583E0220F331F441F8D
:1006F000551F8A95D1F760E074E284EF90E00E9484
:100700000D05CA01B9012FEF30E040E050E00E9432
:10071000B904A40193010E940D05C90181509F4FA6
:10072000181619061CF4822F815002C081E0821B2A
:10073000851500F5E885F98581E090E00A8802C01A
:10074000880F991F0A94E2F7808360E079E08DE3D7
:1007500090E0A40193010E940D05215030404040DB
:100760005040CA01B90122E030E040E050E00E9470
:100770000D0504C0E885F98510829501EC81FD81A5
:100780003083EE81FF812083EA85FB85208141E073
:1007900050E0CA010E8402C0880F991F0A94E2F744
:1007A000282B2083EA85FB852081CA010F8402C0A3
:1007B000880F991F0A94E2F7282B2083EA85FB858E
:1007C0008081088802C0440F551F0A94E2F7842BE9
:1007D0008083DF91CF911F910F91FF90EF90DF9079
:1007E000CF90BF90AF909F908F907F906F905F90D1
:1007F0000895DC011296ED91FC911397E058FF4F9C
:100800008191919180589F4F20813181821B930B60
:1008100060E870E00E94D8040895CF93DF93DC0174
:100820001296ED91FC911397EF01CE57DF4F48815F
:100830005981E058FF4F80819181E058F040841742
:10084000950719F42FEF3FEF0CC0E40FF51F20813F
:10085000CA01019660E870E00E94D80499838883F9
:1008600030E0C901DF91CF910895FC01A085B185E9
:1008700021898C9190E0022E02C0959587950A946B
:10088000E2F780FFF6CF0484F585E02D60830895BC
:1008900087E091E09093A5038093A40380E293E026
:1008A0009093A7038093A60385EC90E09093A9030F
:1008B0008093A80384EC90E09093AB038093AA0309
:1008C00080EC90E09093AD038093AC0381EC90E0DA
:1008D0009093AF038093AE0386EC90E09093B103C6
:1008E0008093B00384E08093B20383E08093B303EA
:1008F00087E08093B40385E08093B50381E0809323
:10090000B60308950F931F93CF93DF938C01EB01F0
:1009100009C02196D801ED91FC910190F081E02D64
:10092000C801099568816623A1F7DF91CF911F91D6
:100930000F910895EF92FF920F931F93CF93DF9340
:100940008C017B01EA010CC0D7016D917D01D801BA
:10095000ED91FC910190F081E02DC801099521975E
:10096000209791F7DF91CF911F910F91FF90EF901A
:100970000895629FD001739FF001829FE00DF11DE9
:10098000649FE00DF11D929FF00D839FF00D749F09
:10099000F00D659FF00D9927729FB00DE11DF91FB5
:1009A000639FB00DE11DF91FBD01CF011124089512
:1009B00097FB092E07260AD077FD04D049D006D030
:1009C00000201AF4709561957F4F0895F6F7909581
:1009D00081959F4F0895A1E21A2EAA1BBB1BFD0112
:1009E0000DC0AA1FBB1FEE1FFF1FA217B307E4070E
:1009F000F50720F0A21BB30BE40BF50B661F771F66
:100A0000881F991F1A9469F7609570958095909545
:100A10009B01AC01BD01CF01089597FB092E05266E
:100A20000ED057FD04D0D7DF0AD0001C38F4509503
:100A30004095309521953F4F4F4F5F4F0895F6F702
:100A400090958095709561957F4F8F4F9F4F08953A
:100A5000AA1BBB1B51E107C0AA1FBB1FA617B707E4
:100A600010F0A61BB70B881F991F5A95A9F7809500
:100A70009095BC01CD010895EE0FFF1F0590F491F4
:080A8000E02D0994F894FFCF6A
:0E0A880003100000000000350482049A0400F0
:00000001FF
