:100000000C9462000C948A000C948A000C948A0070
:100010000C948A000C948A000C948A000C948A0038
:100020000C948A000C948A000C948A000C948A0028
:100030000C948A000C948A000C948A000C948A0018
:100040000C9491010C948A000C94E7020C948A00A1
:100050000C948A000C948A000C948A000C948A00F8
:100060000C948A000C948A000000000024002700F1
:100070002A0000000000250028002B0000000000DE
:1000800023002600290004040404040404040202DA
:100090000202020203030303030301020408102007
:1000A0004080010204081020010204081020000012
:1000B0000007000201000003040600000000000029
:1000C00000006C0411241FBECFEFD8E0DEBFCDBF0F
:1000D00011E0A0E0B1E0E0EDFAE002C005900D9281
:1000E000AC31B107D9F711E0ACE1B1E001C01D922C
:1000F000AA3CB107E1F710E0C4ECD0E004C02297BD
:10010000FE010E946205C23CD107C9F70E948A0124
:100110000C9466050C94000087EB91E00E941D048E
:10012000853090F53DC087EB91E00E9431049093BB
:100130001D0180931C01892B39F587EB91E00E940A
:1001400031040197909309018093080187EB91E0B6
:100150000E943104019790930B0180930A0187EB71
:1001600091E00E943104019790930D0180930C015E
:1001700087EB91E00E94310490930F0180930E0170
:1001800010920701109206018091060190910701DB
:10019000019749F281E090E0909307018093060176
:1001A0008091080190910901909325018093240189
:1001B00080910C0190910D0190931F0180931E017D
:1001C00080910E0190910F01909329018093280155
:1001D0000E94D901209120013091210140912201FA
:1001E00050912301621B730B840B950B20911E0110
:1001F00030911F01442737FD4095542F26173707AC
:100200004807590718F50E94D9016093200170939F
:1002100021018093220190932301809126019091E6
:100220002701892B31F080911E0190911F01892BAC
:1002300049F480910A0190910B01909327018093DA
:10024000260104C0109227011092260180912801F6
:10025000909129018130910519F00297D1F40DC0D8
:100260009093010180930001909303018093020118
:1002700090930501809304010CC01092010110922B
:1002800000011092030110920201109205011092D8
:10029000040160912401709125018BE00E942102EC
:1002A00060912601709127018AE00E94210288E076
:1002B000609100010E949A0287E0609102010E9411
:1002C0009A0286E0609104010E949A02089587EBE9
:1002D00091E040E855E260E070E00E9424038BE08A
:1002E00061E00E947A028AE061E00E947A0288E07E
:1002F00061E00E947A0287E061E00E947A0286E073
:1003000061E00E947A0281E090E09093070180937F
:10031000060108950E94E7010E9467010E948C0077
:10032000FDCF1F920F920FB60F9211242F933F9380
:100330008F939F93AF93BF9380912E0190912F0144
:10034000A0913001B0913101309132010196A11D8F
:10035000B11D232F2D5F2D3720F02D570196A11DA4
:10036000B11D2093320180932E0190932F01A09311
:100370003001B093310180912A0190912B01A0911D
:100380002C01B0912D010196A11DB11D80932A0170
:1003900090932B01A0932C01B0932D01BF91AF91AD
:1003A0009F918F913F912F910F900FBE0F901F90B3
:1003B00018958FB7F89420912E0130912F0140911C
:1003C0003001509131018FBFB901CA01089578946D
:1003D00084B5826084BD84B5816084BD85B582604A
:1003E00085BD85B5816085BDEEE6F0E080818160E8
:1003F0008083E1E8F0E08081826080838081816099
:100400008083E0E8F0E0808181608083E1EBF0E0D0
:10041000808184608083E0EBF0E080818160808374
:10042000EAE7F0E08081846080838081826080835D
:100430008081816080838081806880831092C10088
:1004400008951F93CF93DF93182FEB0161E00E9473
:100450007A02E12FF0E0E255FF4F8491833051F4AE
:1004600080918000806880938000D0938900C09341
:1004700088003CC0843051F4809180008062809379
:100480008000D0938B00C0938A0030C0813039F453
:10049000209729F184B5806884BDC7BD27C082300C
:1004A00039F42097E1F084B5806284BDC8BD1EC0D8
:1004B000863041F48091B00080688093B000C09392
:1004C000B30014C0873041F48091B0008062809303
:1004D000B000C093B4000AC0C038D1051CF4812F0D
:1004E00060E002C0812F61E00E949A02DF91CF910B
:1004F0001F910895282F30E0C90186569F4FFC01B7
:1005000094912A573F4FF9018491882391F0E82F65
:10051000F0E0EE0FFF1FE859FF4FA591B49166235D
:1005200029F48C91909589238C9308958C91892B33
:100530008C930895482F50E0CA0182559F4FFC01CB
:100540002491CA0186569F4FFC0194914A575F4FF0
:10055000FA0134913323D1F1222331F1233021F4F4
:10056000809180008F7705C0243031F48091800025
:100570008F7D8093800018C0213019F484B58F7767
:1005800004C0223021F484B58F7D84BD0DC0263097
:1005900021F48091B0008F7705C0273029F4809135
:1005A000B0008F7D8093B000E32FF0E0EE0FFF1FCF
:1005B000EE58FF4FA591B491662329F48C91909544
:1005C00089238C9308958C91892B8C9308951F9285
:1005D0000F920FB60F9211242F933F934F935F9377
:1005E0006F937F938F939F93AF93BF93EF93FF93FB
:1005F0004091C600E091B301F091B401CF010196A2
:1006000060E870E00E94FC049C018091B50190912B
:10061000B6012817390739F0ED5CFE4F408330935F
:10062000B4012093B301FF91EF91BF91AF919F91DE
:100630008F917F916F915F914F913F912F910F908B
:100640000FBE0F901F9018955F926F927F928F92BE
:100650009F92AF92BF92CF92DF92EF92FF920F9351
:100660001F93CF93DF93EC013A014B01413482E4B5
:1006700058078FE0680780E078070CF07FC060E8DB
:1006800074E88EE190E0A40193010E9431052150AD
:10069000304040405040CA01B90122E030E040E023
:1006A00050E00E94310559016A01A601950120958B
:1006B00030954095509594E0220F331F441F551FED
:1006C0009A95D1F760E074E284EF90E00E943105E2
:1006D000CA01B9012FEF30E040E050E00E94DD0494
:1006E000A40193010E943105C90181509F4F181642
:1006F00019061CF4522E5A9403C055245394521ACE
:1007000060E079E08DE390E0A40193010E9431055F
:100710002150304040405040CA01B90122E030E051
:1007200040E050E00E94310520953095409550956D
:1007300083E0220F331F441F551F8A95D1F760E0D5
:1007400074E284EF90E00E943105CA01B9012FEFF5
:1007500030E040E050E00E94DD04A40193010E94DB
:100760003105C90181509F4F181619061CF4822FBC
:10077000815002C081E0821B851500F5E885F9856E
:1007800081E090E00A8802C0880F991F0A94E2F77E
:10079000808360E079E08DE390E0A40193010E9402
:1007A00031052150304040405040CA01B90122E09B
:1007B00030E040E050E00E94310504C0E885F98552
:1007C00010829501EC81FD813083EE81FF812083D1
:1007D000EA85FB85208141E050E0CA010E8402C019
:1007E000880F991F0A94E2F7282B2083EA85FB855E
:1007F0002081CA010F8402C0880F991F0A94E2F772
:10080000282B2083EA85FB858081088802C0440F5D
:10081000551F0A94E2F7842B8083DF91CF911F91BB
:100820000F91FF90EF90DF90CF90BF90AF909F908F
:100830008F907F906F905F900895DC011296ED91FC
:10084000FC911397E058FF4F8191919180589F4FF1
:1008500020813181821B930B60E870E00E94FC04D0
:100860000895CF93DF93DC011296ED91FC911397DD
:10087000EF01CE57DF4F48815981E058FF4F80810B
:100880009181E058F0408417950719F42FEF3FEF5E
:100890000CC0E40FF51F2081CA01019660E870E0EA
:1008A0000E94FC049983888330E0C901DF91CF91D5
:1008B0000895FC01A085B18521898C9190E0022EDC
:1008C00002C0959587950A94E2F780FFF6CF0484DD
:1008D000F585E02D6083089586E191E09093B8015D
:1008E0008093B70183E391E09093BA018093B901BB
:1008F00085EC90E09093BC018093BB0184EC90E088
:100900009093BE018093BD0180EC90E09093C00174
:100910008093BF0181EC90E09093C2018093C1016C
:1009200086EC90E09093C4018093C30184E08093AF
:10093000C50183E08093C60187E08093C70185E00D
:100940008093C80181E08093C90108950F931F939C
:10095000CF93DF938C01EB0109C02196D801ED9173
:10096000FC910190F081E02DC80109956881662312
:10097000A1F7DF91CF911F910F910895EF92FF9210
:100980000F931F93CF93DF938C017B01EA010CC07F
:10099000D7016D917D01D801ED91FC910190F0811D
:1009A000E02DC80109952197209791F7DF91CF910C
:1009B0001F910F91FF90EF900895629FD001739F58
:1009C000F001829FE00DF11D649FE00DF11D929FEB
:1009D000F00D839FF00D749FF00D659FF00D99272A
:1009E000729FB00DE11DF91F639FB00DE11DF91F4E
:1009F000BD01CF011124089597FB092E07260AD0C7
:100A000077FD04D049D006D000201AF47095619586
:100A10007F4F0895F6F7909581959F4F0895A1E235
:100A20001A2EAA1BBB1BFD010DC0AA1FBB1FEE1F68
:100A3000FF1FA217B307E407F50720F0A21BB30BB3
:100A4000E40BF50B661F771F881F991F1A9469F72F
:100A500060957095809590959B01AC01BD01CF018B
:100A6000089597FB092E05260ED057FD04D0D7DF39
:100A70000AD0001C38F450954095309521953F4F91
:100A80004F4F5F4F0895F6F790958095709561955B
:100A90007F4F8F4F9F4F0895AA1BBB1B51E107C08B
:100AA000AA1FBB1FA617B70710F0A61BB70B881FFE
:100AB000991F5A95A9F780959095BC01CD0108958D
:100AC000EE0FFF1F0590F491E02D0994F894FFCFED
:100AD000010001000100010000000100010001000F
:0C0AE0000100000000005904A604BE0440
:00000001FF
